:100000000C9434000C9449000C9449000C94490061
:100010000C9449000C9449000C9449000C9449003C
:100020000C9449000C9449000C9449000C9449002C
:100030000C9449000C9449000C9449000C9449001C
:100040000C9449000C9449000C9449000C9449000C
:100050000C9449000C9449000C9449000C944900FC
:100060000C9449000C94490011241FBECFEFD8E036
:10007000DEBFCDBF11E0A0E0B1E0E2E0F2E002C0FF
:1000800005900D92A237B107D9F70E9499000C9400
:10009000FF000C940000219A5098519853980895AD
:1000A000E1E8F0E080818860808388E690E09093CA
:1000B0008900809388000895E0E8F0E08081806402
:1000C00080830895E0E8F0E080818F7B808308954D
:1000D0000F931F93CF93DF938C010E946200E8017E
:1000E0000A5D1F4F299139912115310521F02130E9
:1000F000310551F012C00E945C008FE193E001973E
:10010000F1F700C000000BC00E9462008FE193E095
:100110000197F1F700C0000002C00E946200C01702
:10012000D10701F70E946200DF91CF911F910F91DB
:1001300008950E944B000E945000E1E8F0E08081A9
:10014000816080830E946200489931C0529A8CE499
:1001500091E00E9468005A988FE79EE30197F1F7BB
:1001600000C000005A9A8FE79EE30197F1F700C0A4
:1001700000005A988FE79EE30197F1F700C0000056
:100180005A9A8FE79EE30197F1F700C000005A9852
:100190008FE79EE30197F1F700C000005A9A8FE7BE
:1001A0009EE30197F1F700C00000529825C04B99DB
:1001B00011C0529A86E291E00E9468005A9A9FEF1D
:1001C0002FE881E0915020408040E1F700C000001E
:1001D000529812C0499910C0529A80E091E00E9452
:1001E00068005A989FEF2FE881E0915020408040AE
:1001F000E1F700C0000052980E946200A3CFF8947B
:02020000FFCF2E
:1002020000000000000001000000010000000100E9
:1002120000000100000000000000000000000000DB
:1002220001000000000000000000000001000100C9
:1002320000000000010000000100000000000000BA
:1002420000000000000001000000000000000100AA
:100252000000010001000000000001000000010098
:10026200000000000000000000000000010000008B
:0202720000008A
:00000001FF
